:020000040800F2
:10000000102B0020C9010008FD2700088D200008E2
:1000100031220008FD0B00085542000800000000D6
:100020000000000000000000000000000D32000889
:100030000517000800000000352A0008E53F000809
:10004000E3010008E3010008E3010008E301000800
:10005000E3010008E3010008E3010008E3010008F0
:10006000E3010008E3010008E3010008E3010008E0
:10007000E3010008E3010008E3010008E3010008D0
:10008000E3010008E3010008E3010008E3010008C0
:10009000CD410008E3010008E3010008E301000886
:1000A000E3010008E3010008E3010008E3010008A0
:1000B000E3010008E3010008E3010008E301000890
:1000C000E3010008E3010008E3010008E301000880
:1000D000E3010008E3010008E3010008E301000870
:1000E000E3010008E30100084940000800F002F8BD
:1000F00000F05AF80AA090E8000C82448344AAF168
:100100000107DA4501D100F04FF8AFF2090EBAE865
:100110000F0013F0010F18BFFB1A43F0010318473B
:100120009C670000BC6700000A444FF0000C10F808
:10013000013B13F0070408BF10F8014B1D1108BF65
:1001400010F8015B641E05D010F8016B641E01F805
:10015000016BF9D113F0080F1EBF10F8014BAD1C55
:100160000C1B09D16D1E58BF01F801CBFAD505E073
:1001700014F8016B01F8016B6D1EF9D59142D6D3CD
:10018000704700000023002400250026103A28BFF5
:1001900078C1FBD8520728BF30C148BF0B607047F9
:1001A0001FB51FBD10B510BD00F0CFF81146FFF709
:1001B000F7FF04F0A5FC00F0EDF803B4FFF7F2FF41
:1001C00003BC00F0F5F800000948804709480047E3
:1001D000FEE7FEE7FEE7FEE7FEE7FEE7FEE7FEE7F7
:1001E000FEE7FEE704480549054A064B7047000054
:1001F000E93F0008ED00000810250020102B00202A
:100200001027002010270020032A40F2308010F031
:10021000030C00F0158011F8013BBCF1020F6244A1
:1002200098BF11F801CB00F8013B38BF11F8013B32
:10023000A2F1040298BF00F801CB38BF00F8013BDF
:1002400011F0030300F02580083AC0F0088051F84F
:10025000043B083A51F804CBA0E80810F5E7121D5A
:100260005CBF51F8043B40F8043BAFF30080D20779
:1002700024BF11F8013B11F801CB48BF11F8012B45
:1002800024BF00F8013B00F801CB48BF00F8012B68
:10029000704710B5203AC0F00B80B1E81850203AF2
:1002A000A0E81850B1E81850A0E81850BFF4F5AF16
:1002B0005FEA027C24BFB1E81850A0E8185044BFA0
:1002C00018C918C0BDE810405FEA827C24BF51F80D
:1002D000043B40F8043B08BF7047D20728BF31F801
:1002E000023B48BF11F8012B28BF20F8023B48BF52
:1002F00000F8012B70474FF0000200B513469446FA
:100300009646203922BFA0E80C50A0E80C50B1F16D
:100310002001BFF4F7AF090728BFA0E80C5048BF81
:100320000CC05DF804EB890028BF40F8042B08BF1F
:10033000704748BF20F8022B11F0804F18BF00F81B
:10034000012B7047704770477047754600F02CF8D6
:10035000AE4605006946534620F00700854618B0B2
:1003600020B5FFF73FFFBDE820404FF000064FF0FB
:1003700000074FF000084FF0000B21F00701AC46DA
:10038000ACE8C009ACE8C009ACE8C009ACE8C009F9
:100390008D46704710B50446AFF300802046BDE897
:1003A0001040FFF70ABF000000487047B02400204B
:1003B00001491820ABBEFEE726000200704721B1BC
:1003C000826842F00102826003E0826822F001024A
:1003D00082607047014600208A6802F004020AB178
:1003E000012000E0002070470146C86C80B27047D1
:1003F000014600208A6802F008020AB1012000E0EC
:100400000020704730B502460020002350680F4C92
:1004100020400D790C6844EA052420435060906820
:100420000B4C2040D1E902542C434D7944EA450459
:1004300020439060D06A20F470000C7C641EE4B20B
:10044000234340EA0350D06230BD0000FFFEF0FFBE
:10045000FDF7F1FFF0B504460D4600200021092DFF
:1004600011DDE068A5F10A0606EB4607072606FA45
:1004700007F18843A5F10A0606EB460603FA06F1E2
:100480000843E0600CE0206905EB4507072606FA03
:1004900007F1884305EB450603FA06F1084320619E
:1004A000072A0FDA606B561E06EB86071F2606FA30
:1004B00007F18843561E06EB860605FA06F1084347
:1004C000606322E00D2A0FDA206BD61F06EB860749
:1004D0001F2606FA07F18843D61F06EB860605FAA3
:1004E00006F10843206310E0E06AA2F10D0606EB76
:1004F00086071F2606FA07F18843A2F10D0606EBD0
:10050000860605FA06F10843E062F0BD816841F015
:1005100008018160704721B1826842F4A0028260C4
:1005200003E0826822F4A00282607047816841F093
:1005300004018160704700002DE9F80F4FF0030CB3
:100540000CEBE308BA4B4FF0010CC3F808C0D3F82A
:1005500008C0D3F800C0CDF800C0BCF1FF3F08D1FF
:10056000DDF800C0C3F800C01B680093002B00F04A
:10057000E2804368D2F804C0006883EA0C0713687D
:1005800043409C466446AB483D0E07F0FF0A50F8D6
:100590002560CCF3074550F82AA050F825500CF000
:1005A000FF0B86EA3525C3F3072650F82BB050F829
:1005B0002660A8F101084FEA3649E6B250F82660F5
:1005C00089EA366675401669C3F307496E404FEAFB
:1005D0001C6550F8299050F82550CCF3072C85EA7B
:1005E0003925C4F3072950F82CC050F829904FEA58
:1005F0003C4C4FEA394989EA3A6985EA0909556963
:10060000C4F3074A89EA05054FEA136950F82AA09E
:1006100050F82990DBB289EA3A29C7F3072A240E59
:1006200050F82AA0C7F3074750F823304FEA3A4A58
:100630008AEA3B6A50F8244050F827708CEA33630A
:1006400089EA0A09D2F818A084EA3724D2F81CC033
:100650006340203289EA0A0983EA0C04B8F1000FEA
:100660007BDD330EC5F3074C50F8233050F82CC017
:10067000E7B283EA3C23C9F3072C50F8277050F8FF
:100680002CC006F0FF0A4FEA3C4C8CEA376C83EA38
:100690000C03D2F800C050F82AA083EA0C072B0EF6
:1006A000C9F3074C50F8233050F82CC005F0FF0B6D
:1006B00083EA3C23C4F3072CC5F3072550F82CC06C
:1006C00050F825504FEA3C4C8CEA3A6C83EA0C0314
:1006D000D2F804C0C4F3074A83EA0C0C4FEA19634A
:1006E00050F82AA050F82330240E83EA3A23C6F3A8
:1006F000072AC6F3074650F8244050F8266050F801
:100700002AA084EA362409F0FF0650F82BB050F8EE
:1007100026604FEA3A4A4FEA35458AEA3B6A85EA5B
:10072000366583EA0A036C40D2F808A0D56883EAEC
:100730000A036C4028E70368D2F800C0946883EA93
:100740000C074368D2F804C083EA0C0C8368C068C5
:100750006340D468444016E7FFE73748E3B200EB54
:10076000166CC35C9CF800C0C9F3072743EA0C630E
:10077000C5F3074CC75D10F80CC04FEA0C4C4CEAAF
:10078000072C43EA0C03D2F800C0C4F3072783EA1E
:100790000C030B60F3B200EB156CC35C9CF800C05B
:1007A000C75D43EA0C63C9F3074C10F80CC04FEA6D
:1007B0000C4C4CEA072C43EA0C03D2F804C0C6F3F5
:1007C000072783EA0C034B60EBB200EB196CC35CA8
:1007D0009CF800C0C75D43EA0C63C4F3074C10F8F3
:1007E0000CC04FEA0C4C4CEA072C43EA0C03D2F83D
:1007F00008C083EA0C038B6009F0FF0300EB146C64
:10080000C35C9CF800C0C5F3072443EA0C63C6F33D
:10081000074CD26810F80CC0005D4FEA0C4C4CEA53
:10082000002018435040C860BDE8F80F7047000032
:1008300000300240844F00085C4D000870B4002373
:100840009510002D15DDA0F1040C081F12F0040F07
:1008500003D05CF8044F40F8044FD21009D000BF19
:10086000DCF8044044605CF8084F40F8084F521E22
:10087000F6D1664C042DA4F5007005D0062D33D0BA
:10088000082D6BD070BC7047CA6800EB126CC2F3C5
:1008900007459CF800C0455DD6B24CEA056CC2F332
:1008A0000725865D455D2D0445EA06254CEA050CC5
:1008B00054F823600D685B1C75408CEA050CC1F888
:1008C00010C04D680A2B8CEA050CC1F814C08D6865
:1008D0008CEA050C8CEA0202C1F818C0CA61B8BFE4
:1008E0001031D1DB70BC70474A6900EB126CC2F367
:1008F00007459CF800C0455DD6B24CEA056CC2F3D2
:100900000725865D455D2D0445EA06254CEA050C64
:1009100054F823600D685B1C75408CEA050CC1F827
:1009200018C04D68082B8CEA050CC1F81CC08D68F6
:100930008CEA050CC1F820C0CD688CEA050CC1F822
:1009400024C0A4BF70BC70470D698CEA050C8CEA0A
:100950000202C1F828C0CA621831C5E7CA6900EBB3
:10096000126CC2F307459CF800C0455DD6B24CEA54
:10097000056CC2F30725865D455D2D0445EA062515
:100980004CEA050C54F823600D685B1C75408CEA3A
:10099000050CC1F820C04D68072B8CEA050CC1F886
:1009A00024C08D688CEA050CC1F828C0CD688CEA9B
:1009B000050CC1F82CC0A4BF70BC70470CF0FF053B
:1009C00000EB1C66455D367845EA0665CCF30746C4
:1009D000CCF3072C865D10F80CC0360446EA0C2CCC
:1009E00045EA0C0C0D698CEA050CC1F830C04D6964
:1009F0008CEA050CC1F834C08D698CEA050C8CEAD0
:100A00000202C1F838C0CA632031A7E75C4F000872
:100A10002DE9F04F83B0D0F800C00B46CDF804C0EC
:100A20000968009100278488B3F80480D2F8009008
:100A300092463D46444598BFA046817900264A1C0F
:100A40004FF0010EA24230D9A1EB040101F1010BDC
:100A50003246BBF1000F28DD3EEA01011CBF4CF815
:100A60002460012290F806C0B0F804B0ACEB0B0C87
:100A70000CF1010C8C4518D9D0F800C004EB020B26
:100A8000521C4CF82B60D0F800C004EB020B891C00
:100A90004CF82B6090F806C0B0F804B0521CACEBD8
:100AA0000B0C0CF1010C8C45E6D89A79998802F16F
:100AB000010C8C452FD9A2EB010202F101044FF089
:100AC000000C002C27DD3EEA020205D0D3F800C05E
:100AD0004CF821604FF0010C9C79B3F804B0A4EB02
:100AE0000B04641C944216D91C6801EB0C0B0CF12E
:100AF000010C44F82B601C6801EB0C0B921C44F8B1
:100B00002B609C79B3F804B00CF1010CA4EB0B043E
:100B1000641C9442E8D881889A889142514638BF33
:100B2000184600F07FFAB8F1000F29D0DDE9001275
:100B30004846434652F8044B51F804CB14EB0C0CD6
:100B400046EB06041CEB070C44EB050740F804CB0E
:100B500035465B1EEED19FB159F82800401C49F87C
:100B6000280008E008F1010809EB88000168491C29
:100B7000016059F8280018B9BAF804004045F1D2CC
:100B8000BAF8040059F8201000291CBF401CAAF82C
:100B9000040003B0BDE8F08F70B515460C4606465C
:100BA00000F08BFA0023C11700EB91710BE0326863
:100BB000C3F1000C00EB8C0C52F82320A44412BAB1
:100BC0004CF8042C5B1CB3EBA10FF0DB00F003012D
:100BD00000290FD0316851F823C000F0030309DD6C
:100BE00004EB0301A3F1010301F801CC4FEA1C2C33
:100BF000002BF5DC002D18BF286070BD00BFFEE79C
:100C00000146CAB20B1243EA02207047014602486D
:100C10000160006870470000003002400120014977
:100C2000886070470030024008B50020009022E143
:100C30009748008800F00F00964908700846007831
:100C400000287CD1944800689449088008460088B0
:100C500000F03000924908809048008800F440502D
:100C60008E4908808C4909684BF6BF7201EA020080
:100C700080F4005080F0200040F4004141F08001F9
:100C8000854A11608248008800F0100090BB104631
:100C9000006848F60F7108401146086001F0F8F945
:100CA0007D4909684BF6BF7201EA02007B49098859
:100CB00001F4805109B180F480507849098801F429
:100CC000005109B180F400507549098801F0100104
:100CD00009B180F010007249098801F0200109B1C2
:100CE00080F0200081B241F4004141F080016A4A65
:100CF000116008BDFFE76848006880B20090BDF849
:100D0000000000F40060B0B363480068C0F30E0058
:100D100048F68F7108406049086002F005FD5E49A1
:100D200009684BF6BF7201EA02005C49098801F4C8
:100D3000805109B180F480505849098800E056E09C
:100D400001F4005109B180F400505549098801F0BF
:100D5000100109B180F010005149098801F020010B
:100D600009B180F0200081B241F4004141F08001DE
:100D7000494A1160BDE7FFE7BDF8000000F40040FC
:100D8000002878D044480068C0F30E0048F68F7100
:100D900008404149086001F011FE3F4909684BF6DF
:100DA000BF7201EA02003D49098801F4805109B18E
:100DB00080F480503949098801F4005109B180F468
:100DC00000503749098801F0100109B180F0100086
:100DD0003349098801F0200109B180F0200081B277
:100DE00041F4004141F080012B4A116081E729481C
:100DF00000782C4901EB8000D0F8000C80B2009004
:100E0000BDF8000000F40040C0B12248007801EBBA
:100E10008000D0F8000CC0F30E0048F68F71084037
:100E20001C4909781F4A02EB8101C1F8000C1949DD
:100E30000978491E1C4A52F821008047BDF800007D
:100E400000F08000B8B113480078164901EB80002B
:100E5000D0F8000C48F60F7108400E490978114A85
:100E600002EB8101C1F8000C0A490978491E0F4ABA
:100E700052F82100804708484430006880B2044995
:100E8000088000F4004000287FF4D2AE00BF30E7B5
:100E90000401002018000020005C00402C0000200D
:100EA0002E000020005000402C01002010010020E6
:100EB0002DE9F04104460D4601222946204603F063
:100EC00041FC0646605D0106681C205C41EA004169
:100ED000A81C205C41EA0020E91C615C40EA010793
:100EE000BE4205D0FF2001F04FFE0020BDE8F0819A
:100EF0000120FBE70B4A02EB8001D1F8001C01F452
:100F0000804171B102EB8001D1F8001C48F68F726C
:100F100011404CF280021143024B03EB8002C2F8F5
:100F2000001C7047005000400B4A02EB8001D1F8D2
:100F3000001C01F0400171B102EB8001D1F8001CEE
:100F400048F68F72114048F2C0021143024B03EB86
:100F50008002C2F8001C704700500040084A02EBB3
:100F60008001D1F8001C48F68F62114048F28002DF
:100F70001143034B03EB8002C2F8001C70470000D2
:100F80000050004070B490F907C091F907209445D3
:100F90003FD183888C880122A34204BF006809687E
:100FA00003D9BCF1000F27D022E003D2BCF1000F1F
:100FB0002BD027E09D1AA61A50F8255051F826602C
:100FC000B54204D1934224BF521C9342F2D2551E23
:100FD000AB4202BF002070BC70479B1AA21A50F8A7
:100FE000230051F82210884209D9BCF1000F03D028
:100FF00070BC6FF00100704770BC02207047BCF1FC
:10100000000F02D070BC0120704770BC4FF0FF3061
:101010007047BCF1010F06BF002A6FF002000320E9
:1010200070BC704730B483888A794FF0000C9A42C4
:1010300009D202F1010C9C452FBF41F2B54C41F29F
:10104000B54030BC7047C279CA7100228B80002B3A
:1010500008DD04680D6854F8224045F82240521C0F
:101060009342F6DC8879401C9042C8BF002007DD1F
:101070000B6843F822008B79521C5B1C9342F7DC0F
:1010800030BC6046704710B5044601F079F800287E
:101090001CBF012010BDA2886FF0030C5001236813
:1010A0000CEB82024FF000419A5831EA02031EBF56
:1010B00000294908401EF8D110BD10B5044601F0C2
:1010C0005FF8012808BF10BDA2886FF0030C9000E4
:1010D00023680CEB82024FF07F419A580A4218BFF6
:1010E00010BD00291CBF090A401EF7D110BD000029
:1010F0002DE9F04FADF5017D91460D460646B02233
:10110000584950A8FFF7C5F8002405F1190717F052
:101110000F0F04D007F00F00C0F11004274428BAC5
:101120000490202000BA314605902A466E4606A853
:10113000FFF76AF8802170194FF0000801766CB152
:10114000183014F0010F18BF00F8018F610805D0A6
:1011500080F8018000F8028F491EF9D1CDF8008097
:10116000CDF80480CDF80C800024CDF808800DF572
:10117000A07B6E461CADCDF87080CDF87480CDF8A4
:101180007880CDF87C80B8EB171F38BF0DF5F87A62
:1011900018D200205FEA041101EB800255F82030DC
:1011A000B25812BA5A404AF82020401C0428F3D3FF
:1011B00010235A4629467CA8FFF7BEF9641CB4EBFD
:1011C000171FE6D39DF803000024401C8DF8030090
:1011D0000DF5A07B6E460DF1700A20ADCDF8808034
:1011E000CDF88480CDF88880CDF88C80B8EB171FBF
:1011F00038BF0DF5F87817D20020210101EB8002ED
:1012000055F82030B25812BA5A4048F82020401CF5
:101210000428F3D310235A4629467CA8FFF78CF9FB
:10122000641CB4EB171FE7D3102224A91CA8FFF7F6
:1012300005FB102324AA49460AF11000FFF77CF9A8
:1012400099E80F0020AC84E80F00102324AA09F1CC
:1012500010010AF11000FFF76FF90DF5017D002074
:10126000BDE8F08FCC6700082DE9F04188B0164644
:101270008846044600256F46E068401CE0600AD1BD
:10128000A068401CA06006D16068401C606002D16C
:101290002068401C206007EB0511102342462046C1
:1012A000FFF74AF96D1C022DE6DB009831684840D3
:1012B000206101987168484060610298B1684840B7
:1012C000A0610398F1684840E061049831694840A2
:1012D000206005987169484060600698B16948408F
:1012E000A0600798F1694840E06008B0BDE8F0816F
:1012F0002DE9F0472848006800F110052E8826489F
:101300000068077AD6B9042F18D12448007801283C
:101310000FD100212248006880B2801C214A42F887
:10132000101030202049088000BF00201B490870A1
:1013300003E0072710201C49088027E0AC88A6425C
:1013400001D8042000E002200746B44200D9344608
:10135000A0B2A96888478046002000F057FC81466B
:10136000A2B24946404602F077FFA1B2002002F047
:1013700001F82888001B2880688820446880302075
:101380000949088000020949088000BF024909682C
:101390000F72BDE8F08700001C0000201400002040
:1013A000505C0040006000402E0000202C00002017
:1013B0002DE9F0412848006800F110042688A06853
:1013C000C0B1BEB1A588B54200D93546A8B2A16862
:1013D000884707462088401B20806088284460801A
:1013E000002000F0F1FB8046AAB24146384601F0E9
:1013F0000DFB00BF208850B14FF4405017490880C2
:101400000021084601F0B6FF3020154908802088E9
:10141000A188884204DB03200F490968087218E09C
:101420002088002804DD05200B490968087210E0B7
:10143000208870B906200849096808720021094807
:10144000006880B2801C084A42F81010302004491D
:101450000880BDE8F08100001C0000202C00002066
:101460002E000020505C0040006000402DE9F84F45
:101470009B48006845780027BA46062D1BD198483E
:101480000068007800F07F00002813D194490968B3
:101490008878012803D193490968CF690AE00228B6
:1014A00003D1904909680F6A04E0032802D18D49ED
:1014B00009684F6A94E0002D64D18948006840882B
:1014C00000285FD186480068C08802285AD1844825
:1014D00000680079002855D181480068007800F044
:1014E0007F0028B97E480068808808B97E4F77E081
:1014F0007B480068007800F07F00012810D178490F
:1015000009684879774909688A6900219047002865
:1015100066D173480068807A002861D0724F5FE01E
:101520006F480068007800F07F00022858D16C48AE
:101530000068407900F00F0669480068407900F0C3
:10154000700967480068407900F0800038B1674949
:1015500001EB8600D0F8000C00F0300806E063498B
:1015600001EB8600D0F8000C00F440586048007889
:10157000B04235D9B9F1000F32D1B8F1000F2FD0F8
:10158000594F2DE0082D07D155480068007800F02C
:101590007F0028BB574F23E00A2D21D15048006817
:1015A000007800F07F0001281AD14D480068807A49
:1015B000B0B14B480068408890B94948006800794C
:1015C00070B947480068C088012809D144490968B2
:1015D0004879444909688A690021904700B9464F13
:1015E00057B13F480068A0F812A03D4800688761E5
:1015F0000020B84700240FE0394A12685078394A71
:101600001268116988470446032C05D10920344922
:1016100009680872BDE8F88F31480068008A4FF603
:10162000FF71884204D109202D4909680872F1E749
:10163000022C03D02A480068008A20B908202849D3
:1016400009680872E6E726480068007800F0800024
:10165000E0B323480068C088009021480068008AF1
:101660000099884204D91E4900980968088223E03D
:101670001B480068008A1A490968C98888421BDA31
:1016800017480068008A1749096891F82C108842A9
:1016900003DA0020194908700EE011480068008A3A
:1016A0001049096891F82C1090FBF1F201FB12002F
:1016B00010B90120114908700A48006890F82C10F0
:1016C000074800688182FFF713FE07E0FFE7032069
:1016D00003490968087200030949088000BF99E7B7
:1016E0001C00002020000020313A0008005000407B
:1016F0006E000020B5390008053A000814000020EB
:101700002C0000207047000001200149087070473C
:10171000000000202DE9F0414549012002F06CFD58
:1017200043480078B02806D0B12812D0B22839D06A
:10173000B32870D139E003213D48FFF7B9FB38B138
:101740003B4989783A4A527841EA022002F0C6FAC7
:1017500065E03A24A11C3648FFF7AAFB08B33548D8
:10176000008890FBF4F000F10108314840784045D2
:1017700006D12F4840782F49098800FB141700E054
:101780002746002508E02A49A81C085C497801FB87
:101790000451294A50546D1CBD42F4DBB12001F0C4
:1017A000F3F93CE001F068FC39E03A24B320234926
:1017B00008701F4840784870002509E01C484078B0
:1017C00000FB04501C49095C1C4AA81C11546D1CE8
:1017D000A542F3DB0122A11C184802F0B3FF064624
:1017E000310E164AA01C1154C6F30741E01C1154D7
:1017F000C6F30721201D1154601D16540020104906
:10180000087040220D49812002F00DFD012001F0F9
:10181000DFFD04E0FFE7F02001F0B6F900BF00BFF4
:101820004FF44051012001F05BFDBDE8F081000064
:10183000482300203C00002084020020A422002035
:1018400000000020014908607047000014040140B6
:1018500030B5044604254FF4302000F0B9F80546B1
:10186000042D17D10C48006940F002000A490861B4
:1018700008464461006940F0400008614FF43020A0
:1018800000F0A6F805460448006941F6FD710840DD
:1018900001490861284630BD0020024004200B4960
:1018A000C96801F0010109B101200EE00749C968CA
:1018B00001F0040109B1022007E00449C96801F000
:1018C000100109B1032000E004207047002002400D
:1018D00010B5102000F00EF8022000F061F810BDE5
:1018E0000348006940F0800001490861704700002A
:1018F000002002400549096821F01001034A1160E7
:101900001146096801431160704700000020024041
:1019100078B506460C46042500200090E80200F049
:1019200057F80546042D24D11348006940F0010002
:10193000114908613480E80200F04AF80546042D98
:1019400010D1B01C0090200C00990880E80200F033
:101950003FF805460848006941F6FE71084006490F
:10196000086106E00448006941F6FE71084002493A
:101970000861284678BD000000200240064A07485A
:10198000002105E013680360121D001D4B1C99B275
:101990004929F7D37047000000FC00088A23002083
:1019A00001460020034A106800F038000843106028
:1019B0007047000000200240024803494860034885
:1019C000486070472301674500200240AB89EFCD96
:1019D00000B502460423FFF761FF034603E0FFF76B
:1019E0005DFF0346521E012B01D1002AF7D102B937
:1019F0000523184600BD000070B5FFF7DDFF0A485B
:101A0000FFF726FF094C084D002607E0284621680D
:101A1000FFF77EFF241D2D1D701C86B2492EF5D3C5
:101A2000FFF75EFF70BD000000FC00088A23002065
:101A300070B504460D468088A1792844884284BF49
:101A400041F2B54070BD204600F09AFBE0B9DDB12F
:101A5000A088421E07D02068531950F8221040F881
:101A60002310521EF7D12068002D016840F8251080
:101A700088BF002005D9216841F82200521C9542F8
:101A8000F9D8A0882844A080002070BD2DE9F0413D
:101A9000024600250026002000230024002791F89C
:101AA00003C00CF00F0591F803C00CF0100CBCF152
:101AB000000F03D091F802C04CEA050591F800C070
:101AC000BCF1000F31D0146800202BE04FF0010C66
:101AD0000CFA00F3B1F800C00CEA03069E4220D1D4
:101AE00083004FF00F0C0CFA03F7BC4305FA03FC1C
:101AF0004CEA040491F803C0BCF1280F06D14FF062
:101B0000010C0CFA00FCC2F814C00AE091F803C002
:101B1000BCF1480F05D14FF0010C0CFA00FCC2F8E3
:101B200010C0401C0828D1D31460B1F800C0BCF12B
:101B3000FF0F34DD546800202EE000F1080C4FF058
:101B4000010808FA0CF3B1F800C00CEA03069E4243
:101B500021D183004FF00F0C0CFA03F7BC4305FAB8
:101B600003FC4CEA040491F803C0BCF1280F05D132
:101B700000F1080C08FA0CF8C2F8148091F803C0C0
:101B8000BCF1480F07D100F1080C4FF0010808FA2A
:101B90000CF8C2F81080401C0828CED35460BDE871
:101BA000F0814161704701617047000010B5002469
:101BB00004E001F051FA03490855641C102CF8D3D5
:101BC00010BD00000100002001460548006880B2F9
:101BD00000EBC100001D034A32F8100080B27047CC
:101BE000505C00400060004001460648006880B23A
:101BF00000EBC100801D044A32F81000C0F3090058
:101C000070470000505C00400060004001460548FD
:101C1000006880B200EBC100034A32F8100080B2C5
:101C200070470000505C00400060004010B5FFF7B6
:101C3000A5FE17201549087000241548C08B4FF6E3
:101C4000FF71884205D01248C08BA04201DD1048C8
:101C5000C48B0F48008C4FF6FF71884205D00C48AA
:101C6000008CA04201DD0A48048C0948408C4FF6E4
:101C7000FF71884205D00648408CA04201DD04482F
:101C8000448C2012014948708C7010BD84020020E1
:101C90008A23002070B50A480468001D0568001DED
:101CA0000668344454B108220649204600F049FA37
:101CB000042204491031284600F043FA70BD0000A8
:101CC000E8F7FF1F4400002070B504460025062CED
:101CD00018D11E480068007800F07F00012811D15B
:101CE0001A480068407968B9184800688078222846
:101CF00001D1174D1BE0154800688078212816D1C6
:101D0000144D14E011480068007800F07F0021288D
:101D10000DD1032C02D0092C07D101E00E4D05E0B6
:101D20000E4D09200E49087000E000BF00BF0DB93C
:101D3000022070BD054800688561002103480068E5
:101D400041820020A8470020F3E700001C0000208B
:101D5000BD1D00088D1D0008A11D0008291F0008D9
:101D60006D00002010B504460249204601F038FEFF
:101D700010BD0000CC00002010B5044602492046EA
:101D800001F02EFE10BD0000C400002010B5044676
:101D90000249204601F024FE10BD0000DC000020B6
:101DA000014629B90120034A1268108200207047B9
:101DB0000148FCE71C0000206800002010B5044624
:101DC0000249204601F00CFE10BD0000D4000020A6
:101DD00070B5054606480068C478042C01DD002073
:101DE00070BD044800EBC401284601F0F9FDF7E797
:101DF0001C000020E40000200246002901DD022032
:101E00007047002A01DD0220FAE70020F8E7000011
:101E100000B5024606480068007800F07F002128DF
:101E200004D10B2A02D100F073F800BD0220FCE7B8
:101E30001C00002010B50020284909688872274935
:101E40000968C8722648C079244909684872002088
:101E500001F0DEF94FF40071002001F0D3FA1021F7
:101E6000002001F095FA1821002001F001FA582114
:101E7000002001F06FFA0020FFF770F8194890F881
:101E80002C10002001F006FA002001F049FA4FF46E
:101E9000C061012001F0B6FA4FF48071012001F019
:101EA00059FA4FF4A071012001F0E2F9402101201C
:101EB00001F060FA4021012001F0ECF94FF44051AB
:101EC000012001F00DFA2021012001F061FA00202B
:101ED00001F0A6F901200449086010BD1C00002093
:101EE000504C0008700000205C0000200348817AFC
:101EF00011B10521024A116070470000480200201C
:101F00005C00002004200149086070475C0000204C
:101F100003480068C1780348016000207047000052
:101F20001C00002068000020014629B94020034A17
:101F300012681082002070470148FCE71C00002056
:101F4000082300202DE9F04140480078B02806D051
:101F5000B12812D0B22839D0B32870D139E003218A
:101F60003A48FEF7A5FF38B138498978374A5278A0
:101F700041EA022001F0B2FE65E03A24A11C334898
:101F8000FEF796FF08B33248008890FBF4F000F1AA
:101F900001082E484078404506D12C4840782C490D
:101FA000098800FB141700E02746002508E02749B0
:101FB000A81C085C497801FB0451264A50546D1C4A
:101FC000BD42F4DBB12000F0DFFD3CE001F054F84D
:101FD00039E03A24B320204908701C484078487002
:101FE000002509E01948407800FB04501949095CB4
:101FF000194AA81C11546D1CA542F3DB0122A11C37
:10200000154802F09FFB0646310E134AA01C1154DE
:10201000C6F30741E01C1154C6F30721201D1154DB
:10202000601D165400200D49087040220A49812085
:1020300002F0F9F8012001F0CBF904E0FFE7F0200D
:1020400000F0A2FD00BF00BFBDE8F0810823002022
:102050003C00002084020020A42200200000002078
:102060007047000010B5FFF715FE0020054909680C
:10207000887200F005FD02F0ADF80020024908600A
:1020800010BD00001C0000205C00002000BFFEE727
:1020900010B518480068047A022C01D0042C05D130
:1020A000FFF726F913480068047A1CE0062C19D1C2
:1020B00010480068407805280ED10E480068007866
:1020C00000F07F0040B90B490968C87801F0A8F812
:1020D00009490968086A804708490968886880478B
:1020E000082400E00824034909680C7200F0A4FCED
:1020F00010BD00001C00002028000020200000204F
:102100008379012203F1010C0023BCF1010F0BD9EB
:10211000D0F800C04CF8223090F806C0521C92B2A1
:102120000CF1010C9445F3D801228280002903DBD5
:10213000C371006801607047C27100684942016064
:10214000704730B50B46002100BF16E00A24B4EBFF
:10215000107F05D9302404EB107403F8114005E01A
:10216000412404EB10740A3C03F8114000010025DF
:102170004C00641C1D554C1CE1B29142E6DB30BDA5
:102180008188012905D100680068002804BF01206A
:10219000704700207047000010B5064CA07A18B1B7
:1021A00005200549086002E001200349086001F0AC
:1021B0001BFF10BD480200205C000020F0B4002985
:1021C00033D082886FF00304036804EB82054FF07C
:1021D000000C5B59C1F12005EB4018BF9C46521E14
:1021E0000CD0036804EB820753F82260DF598E405D
:1021F000EF403E4343F82260521EF2D1026813685A
:1022000003FA01F11160BCF1000F0ED081888379CF
:102210004A1C9A4282BF41F2B540F0BC7047026846
:1022200042F821C08188491C8180F0BC00207047A1
:1022300000BFFEE72DE9FF4F87B04FF0000B089875
:102240000124914680885D465F46012888BF0424AA
:1022500099F80600112101EB8002611E049102FA37
:1022600001F101EB800101EB80001C3081B2149878
:10227000C0880A18149989888A4200F2E380149968
:102280004FF0010209680E18049902FA01FA149934
:1022900000EB8A00C88000F0D58069464846149A51
:1022A00000F013F9002840F0CD80079A6B461046E5
:1022B000019900F0C6F900287CD1684600F0BBF90E
:1022C0004FF00008BAF1000F0DDD00BF99F80610BD
:1022D00006EB8800149A01F083FA00286AD108F10D
:1022E0000108C245F2DC00210A98FFF709FF3168B6
:1022F0000798FEF797FE04984FF0000800280CDDC1
:1023000030686B460246014600F09BF9002851D127
:10231000049808F101088045F2DB4FF00108BAF19A
:10232000010F0FDD06EB880056F8282050F8040C4A
:102330006B46079900F085F900283BD108F10108A8
:10234000C245EFDC08988088401E05900A990798DE
:10235000FEF768FE03E000BFB9F101090CD1059852
:10236000B0F1FF3F49D008984FF020090168059867
:1023700051F82080401E05904FEAD8704FEA480877
:1023800055EA0001E8D025B1012D08BF00281AD078
:1023900003E0002818BF0125DED10BF1010BA4EBEF
:1023A0000B01884007430225A345D5D10025002C09
:1023B00014DD00E044E00A9A6B461146084600F03E
:1023C00040F9E8BB07E00A9A6B461146084600F060
:1023D00038F9A8BBC0E76D1CA542EADB27EA0A0072
:1023E0000A9A56F820106B46104600F02AF938BBBE
:1023F0004FF0000B5F460125AEE7022D1AD1BBF16D
:10240000000F17DD0025012000FA04F40A9A6B463C
:102410001146084600F015F990B97F003C4206D0FD
:102420000A9A6B461046079900F00BF940B96D1CEB
:102430005D45EBDB0A996A46084600F025F800E0A6
:1024400000E020B10BB040F2ED30BDE8F08F6846FF
:1024500000F0E4F80024BAF1000F07DD06EB840079
:10246000149901F0DEF9641CA245F7DC14986FF0B2
:102470000302C188049802FA00F008441499C88045
:102480000BB00020BDE8F08FF8B5054600200090A5
:1024900014460E46D268A979684601F0A1F90028D1
:1024A0001CBF40F2ED30F8BD01210098FFF728FE77
:1024B000234632462846009900F0C3F80546684690
:1024C000E16801F0AEF92846F8BD2DE9F84F054660
:1024D00000200090A8790C46811C9046201D01F038
:1024E0007FF900281CBF40F2ED30BDE8F88F256071
:1024F00000216068FFF704FEA8886168401C01267F
:1025000088806068A9880322006840F821602868F4
:1025100002211F23D0F800C030460CFB00F7174003
:102520008F4228BF0844490086EA42025B1EF4D16C
:102530004042A060A8794246411C684601F050F92B
:1025400038B14146201D01F06CF940F2ED30BDE894
:10255000F88F28460099FEF765FD0098FEF793FD79
:10256000C0F1200000F01F0949460098FFF726FE41
:10257000606843460246009901F0C6FB58B14146E7
:10258000201D01F04EF94146684601F04AF940F23B
:10259000ED30BDE8F88FA8880027002888BF6FF0CD
:1025A000030A26D96068AA8801680AEB82028E585D
:1025B0000121FFF73DFAC6B128460099FEF732FD2A
:1025C0003146009800F0EDF849460098FFF7F6FD17
:1025D000606843460246009901F096FB6068A9884E
:1025E000006850F82160002EE6D1A8887F1CB84210
:1025F000D8D84146684601F014F929466068FEF7CC
:10260000C1FC002805DD606843460246294601F00A
:102610007BFB0020C4F80C80BDE8F88F002101602E
:1026200081604168002908BF704710B5C168001D6E
:1026300001F0F7F810BD10B5C168001D01F0F1F808
:1026400010BD2DE9FF4F83B00020009006980F4683
:102650000D68006806998488066889680291069961
:102660008079CA68411C684601F0BAF800281EBF8C
:1026700040F2ED3007B0BDE8F08F00210098FFF781
:102680003FFD0098D0F800C0B888A04238BF0021B4
:1026900004D245F82010401CA042FAD30398808849
:1026A000A04238BF002106D2039A126842F82010D7
:1026B000401CA042F8D34FF0000B002C84BF0CEB61
:1026C0008400019040D903982B684FF0000E0068F9
:1026D000DCF80020714650F82B907046E9FB03218E
:1026E000029B012702FB03F83368012CE8FB03205F
:1026F00088BF734616D95CF8272055F827A05218D2
:1027000043EB0301E9FB0A2156F827A0821843EBAB
:102710000300EAFB08200CEB870A7F1C4AF8042C14
:10272000BC42E8D85CF82420019B51184EEB0E0205
:1027300009184EEB0E0043F8041C10440BF1010B7A
:102740004CF824005C45BED80098611C818089B299
:10275000012907D90CEB810252F8042C002A08BF8A
:10276000491EF3D006990968FEF70CFC00280ADB25
:102770000698059A0168009801F030FB059A00213F
:102780000446D17104E005990098FEF74BFC04461D
:1027900006996846C96801F044F807B02046BDE8CC
:1027A000F08F2DE9F04121B300228488056813469B
:1027B0009446002C88BF00261DD955F82C7014466D
:1027C000E7FB014345F82C4084881A460CF1010CC4
:1027D00033466445F1D872B1A1B28379491C99425C
:1027E0009ABF818045F82C2041F2B54003D9BDE85D
:1027F000F08100F0F9FE0020BDE8F08170477047DD
:1028000070B5002100230F22C47804B3154C24684E
:1028100004F4E064C4F5E064210AC1F10403CA4091
:10282000447804FA03F184781440214309010E4CE2
:102830000678A155047804F01F050124AC40057802
:102840006D11AD0005F1E025C5F8004109E00478FF
:1028500004F01F050124AC40044D0678761145F8BC
:10286000264070BD0CED00E000E400E080E100E0F7
:1028700002490143024A1160704700000000FA0556
:102880000CED00E070B502264748006844784648E1
:102890000068007800F07F00002844D1092C03D1A3
:1028A00001F046F906465FE0052C14D13E48006869
:1028B000C0787F280BDC3C480068807838B93A48FB
:1028C0000068808818B938480068807A08B10825FF
:1028D00065E0002648E0032C0ED133480068C0783C
:1028E000012807D130480068808818B901F044F900
:1028F000064639E0022637E0012C35D12A48006827
:10290000C07801280DD128480068808848B9264839
:102910000068407A00F0200018B100F095FF0646EC
:1029200022E0022620E020480068007800F07F00C6
:10293000012805D10B2C17D101F09AF9064613E0B6
:1029400019480068007800F07F0002280BD1012CA4
:1029500003D100F079FF064606E0032C04D101F014
:102960001FF9064600E002264EB1E0B20F4A126897
:10297000516988470646032E01D109250FE00EB1A3
:1029800008250CE0062500210948006880B2801C5B
:10299000084A42F8101030200749088000BF024959
:1029A00009680D7270BD00001C000020200000208E
:1029B000505C0040006000402E00002010B511481F
:1029C0000068047A022C01D0042C01D1082412E002
:1029D000032C01D0052C05D1FEF7EAFC094800685C
:1029E000047A08E0072C05D107490968C8688047C0
:1029F000082400E00824034909680C7200F01CF860
:102A000010BD00001C00002020000020F0B5561C66
:102A10007510074E06EB41042B4605E034F8047BA5
:102A200020F8017B401C5B1E002BF7D1F0BD00009D
:102A3000006000407047000010B50D4890F82C1061
:102A4000002000F027FC0B480068007A082805D118
:102A5000400209490880102008490880054800689C
:102A6000007A092801D1012010BD0020FCE70000F8
:102A7000700000201C0000202C0000202E000020F0
:102A800010B5012001F0E6FA01240B480460002093
:102A90000A49088008460088074908600020091D87
:102AA00008604FF4E0500549088008460088024954
:102AB0000860002010BD0000405C0040260000209F
:102AC00029B1064A52690243044B5A6104E0034AA1
:102AD00052698243014B5A61704700000010024066
:102AE00029B1064AD2690243044BDA6104E0034A81
:102AF000D2698243014BDA61704700000010024046
:102B000029B1064A92690243044B9A6104E0034AE0
:102B100092698243014B9A617047000000100240A5
:102B20000149086070470000D80042423C20144927
:102B300008701448807848701248007988701148ED
:102B40008079C8700F48007A08710E48807A487101
:102B50000C48007B88710B48807BC8710948007C59
:102B600008720848807C48720648007D88720548D3
:102B7000807DC8720348007E087300207047000003
:102B800084020020420000207CB505460020009011
:102B900001908DF8005001221146684601F0D2FDE7
:102BA0000446200E8DF80100200C8DF80200200A4A
:102BB0008DF80300E0B28DF804000020054908708C
:102BC00005226946812001F02EFB012000F000FC67
:102BD0007CBD000000000020002912BF002841F247
:102BE000747070472DE9F04FD1B000244C628C62B4
:102BF0000D46D0E90361D0E90097D0F808B04391C1
:102C0000D0F8148050216846FDF775FBB0222949A1
:102C100014A8FDF73EFBA7F11000112822BF41F2D6
:102C2000767051B0BDE8F08FB8F1200FC2BF41F20D
:102C3000777051B0BDE8F08F102EC2BF41F27A70AC
:102C400051B0BDE8F08FB81900EB080A3A46494682
:102C50006846FDF7D9FAE946002E05DD09EB0700C5
:102C600032465946FDF7D0FAB8F1000F06DD09EB00
:102C70000700304442464399FDF7C6FA2C606C6069
:102C8000AC60202344AA51466846EC60FEF730FA57
:102C900000281CBF51B0BDE8F08F44AA14A92846F3
:102CA000FEF7E2FA01212962A96251B02046BDE88F
:102CB000F08F00001C67000810B594460C46D0E960
:102CC000001284B0CDE900120293D0E902236146DC
:102CD000204601F066FE04B010BD00002DE9F04171
:102CE00096B080460C4615461E46002712480590B1
:102CF0002020069000200A9008900BA905A8FFF755
:102D00006BFF07469FB94FF48050ADF804000020D8
:102D1000ADF80600094800900294039504966B46AE
:102D20000BAA02A9404600F00BF8074600BF384640
:102D300016B0BDE8F081000084220020841200203B
:102D40002DE9FF4F85B041F2EE300024CDE900407F
:102D5000059892460F46002818BF002F1BD0BAF1E5
:102D6000000F1CBF0898002815D0386800281FBF26
:102D7000B86800287A68002AD8BF41F2F03008DD30
:102D800005984068A0F10B039A42C8BF41F2F230A7
:102D900005DD01909EE041F2F03001909AE0089A42
:102DA000089BD2889B88104498427DDC089B1B6856
:102DB00003EB0208089AD08005987A684068801A68
:102DC000C01E0290002088F80000022088F8010050
:102DD00002980028C8BF4FF4803B4BDD08EB04008D
:102DE00000F1020903900298051BBAF1000F6AD0A6
:102DF000B9F1000F01D1002D65DCDAF828000028B8
:102E000061D00026B6EB154F0FDA00BF002309EBA7
:102E100006411A465046CDF800B001F0D3FC002818
:102E200051D1761CB6EB154FF0DB714205EB01403A
:102E30000023009009EB06411A46504601F0C2FCFF
:102E4000002840D12246002D11DD03980021801C6E
:102E5000037843B102EB010CA4451CBF08EB040C42
:102E60008CF80230641C401C491C6D1EF0D1029885
:102E7000A042B3DC02990020414401228870294815
:102E80008260826802680092B2F1FF3F26D07868C3
:102E90000028C4BFCA1C39680CDD00BF11F8013B13
:102EA0001B1D03EB430300E014E05B0002F8013B51
:102EB000401EF3D1BA684146089B0598FFF7FCFE17
:102EC000002808BF01900898C18805988088081AD2
:102ED0000899C880019809B0BDE8F08F009A026097
:102EE00000680090002878680ED00028C4BFCA1C73
:102EF0003968DFDD11F8013BDB1D03EB830302F8CA
:102F0000013B401EF6D1D5E70028C4BFC91C3A6872
:102F1000D0DD00BF12F8013B01F8013B401EF9D1A2
:102F2000C8E700000030024070B50546324800682E
:102F300020F0800030490860072D01D02F4805702F
:102F40002E48007808284ED2DFE800F004111A203D
:102F50002B384E4F2A48006828B900F055F8062053
:102F60002649087002E005202449087041E000F07D
:102F70004BF804202149087001202149086038E0FD
:102F800002201E4948700320087032E01B48407838
:102F9000401E1A4948700846407808B90420087055
:102FA00027E01848006884B244F010041548046013
:102FB0000520124908700A2048701AE00F4840782E
:102FC000401E0E4948700846407858B90D480068C0
:102FD00084B224F010040B4804600620087000201E
:102FE0000749086005E000BF00BF062003490870DC
:102FF00000BF00BF70BD00000C0C0140610000204C
:1030000064000020405C004010B50748006884B2AE
:1030100024F0040404480460FFF7BEF84FF41E4097
:103020000149086010BD0000405C004010B500245C
:10303000012001F04AFD0748FDF7D6F964F35F006F
:10304000044604F0010080EA540080EA940080EA1B
:10305000942010BD0024014070B50024002506E036
:10306000FFF7E4FF40EA4400C4B2681CC5B2082D73
:10307000F6DB204670BD000070B588B05CA000682B
:1030800005905C4800783C2851D006DC072809D020
:10309000152873D017287FD17AE0A0284BD0A92813
:1030A0007AD159E0FEF782FDFEF768FC0320049018
:1030B0004FF48070029005A803904F4801904F4B49
:1030C00010224F4901A8FFF709FE002003E000216C
:1030D0004C4A1154401C2028F9DB002005E04649E9
:1030E0002439095C474A1154401C1D28F7DB1D2276
:1030F0004349444801F02FF907203E490870002455
:1031000005E03E48015D3B4A601C1154641CFF2CE5
:10311000F7DD002406E03B48015D364A04F2011069
:103120001154641C202CF6DB40F2211536E0FFF729
:10313000FDFC0D2532E0FEF721FC002406E02D49C0
:10314000601C085C2C4924390855641C1D2CF6DBD6
:10315000FEF752FC002521E0FEF710FC002405E0FC
:103160002449601C095C24480155641CFF2CF7DDD0
:10317000FEF742FC002511E000E00DE01D498978D2
:103180001C4A527841EA022000F04EF9002505E081
:10319000FEF74CFD032501E0002500BF00BFB22073
:1031A0008DF8180028128DF81900E8B28DF81A0071
:1031B0000122032106A801F0C5FA0646300E8DF85B
:1031C0001B00300C8DF81C00300A8DF81D00F0B289
:1031D0008DF81E0000200C490870072206A98120E6
:1031E00001F021F8012000F0F3F808B070BD0000F4
:1031F0000100010084020020AE23002048010020CD
:103200000100002064020020000000207047000040
:103210004FF6F8710140014A11607047505C004060
:1032200030B501460F4B1A78002014E003060E4C0F
:1032300004EB9353D3F8003C48F68F74234048F2D4
:1032400080042343C4B223430406074D05EB945482
:10325000C4F8003C401C9042E8D341F08003034C8A
:10326000236030BD6E000020005000404C5C0040E8
:1032700010B54A105300054A126892B202EBC00220
:10328000121D034C44F8123010BD0000505C004089
:103290000060004010B502460F48006880B200EBA5
:1032A000C200801D0D4C04EB40033E290BDD48118C
:1032B00001F01F040CB9441EA0B24FF4004444EACC
:1032C00080241C6007E0481001F001040CB1441C8C
:1032D000A0B284021C6010BD505C00400060004041
:1032E00030B50E4C04EB8003D3F8003C4BF68F74E2
:1032F00003EA040201F480530BB182F4805201F41A
:1033000000530BB182F4005242F4004343F08003B7
:10331000024D05EB8004C4F8003C30BD0050004075
:1033200010B50B4B03EB8002D2F8002C4BF68F73D9
:1033300002EA030181F4805181F4005141F400421A
:1033400042F08002024C04EB8003C3F8002C10BD55
:103350000050004010B54A105200044B1B689BB24D
:1033600003EBC003024C44F8132010BD505C004036
:1033700000600040044A126892B202EBC002921C44
:10338000024B43F812107047505C00400060004050
:1033900030B50E4C04EB8003D3F8003C48F6BF7404
:1033A00003EA040201F010030BB182F0100201F0F5
:1033B00020030BB182F0200242F4004343F080036B
:1033C000024D05EB8004C4F8003C30BD00500040C5
:1033D00010B50B4B03EB8002D2F8002C48F6BF73FC
:1033E00002EA030181F0100181F0200141F4004262
:1033F00042F08002024C04EB8003C3F8002C10BDA5
:103400000050004010B5074B03EB8002D2F8002CAF
:1034100048F68F131A400A43024C04EB8003C3F8AA
:10342000002C10BD005000402DE9FC41044600274F
:10343000FEF7A4FA3148C08B4FF6FF71884204D0E2
:103440002E48C08BADF8000002E00020ADF800006F
:103450002A48008C4FF6FF71884204D02748008C20
:10346000ADF8020002E00020ADF802002348408CD5
:103470004FF6FF71884204D02048408CADF804001C
:1034800002E00020ADF804000026002005E03DF831
:103490001010A14200D10126401C0328F7DB26BBF7
:1034A000ADF80440002013E002210EE03DF81020AA
:1034B0003DF811309A4207DA3DF810503DF81120DE
:1034C0002DF810202DF81150491C0329EEDB401C6B
:1034D0000228E9DBBDF800000849C883BDF80200F6
:1034E0000884BDF80400488401270FB1FEF784FA70
:1034F0001520FFF749FBBDE8FC8100008A2300206E
:1035000010B500F001F810BD0CB50020019000903E
:103510003348006840F480303149086000BF3048CB
:10352000006800F4003000900198401C0190009861
:1035300018B90198B0F5A06FF1D12948006800F4DE
:10354000003010B10120009001E0002000900098B0
:10355000012843D12348006840F010002149086049
:103560000846006820F0030008600846006840F044
:10357000020008601A4840681949486008464068D7
:1035800048600846406840F48060486008464068EB
:1035900020F47C1048600846406840F4E810486019
:1035A0000846006840F08070086000BF0C48006862
:1035B00000F000700028F9D00948406820F00300AE
:1035C000074948600846406840F00200486000BF74
:1035D0000348406800F00C000828F9D10CBD000039
:1035E00000100240002002400022C271837911467F
:1035F000B3F1FF3F08D0036843F821208379491CC9
:1036000089B25B1C8B42F6D8012181807047000093
:1036100000B587B000208DF81B000220ADF818001F
:1036200006A91E48FEF732FA002001908DF8080026
:1036300001208DF809004FF46020039000200490D1
:1036400001208DF814000323012211461448FCF7D1
:1036500001FF01A91248FCF7D5FE01211048FCF733
:10366000AEFE0F48FCF752FF00BF0D48FCF7C0FE4E
:103670000028FAD10A48FCF759FF00BF0848FCF7B8
:10368000A9FE0028FAD101210548FCF798FE012186
:103690000348FCF740FF07B000BD000000080140F0
:1036A0000024014008B501210807FFF719FA01219C
:1036B0001020FFF725FA01214802FFF721FA012126
:1036C0001020FFF71DFA01212020FFF719FA102022
:1036D0008DF803004002ADF8000002208DF80200D2
:1036E00069460A48FEF7D2F9FFF792FF4FF48020AF
:1036F000074908600020091D08604FF48020091D5B
:1037000008600020091D086008BD0000001001408D
:103710000004014010B50020FFF702FA0121C8059E
:10372000FFF7DEF910BD000038B501242948006814
:1037300080B2001D284931F8100080B201EB400032
:10374000009026480068007A092832D00098007856
:103750002249096808700098401C00900098007881
:103760001E49096848700098401C0090009800EBC2
:1037700044000090009931F8020B0091FDF740FAE7
:10378000164909684880009800EB440000900099B1
:1037900031F8020B0091FDF733FA1049096888806F
:1037A000009800EB44000090009800880B490968DD
:1037B000C880012009490968087208480068C08863
:1037C00010B9FFF75FF801E0FDF750FEFFF734F99D
:1037D00038BD0000505C0040006000401C0000202C
:1037E00030B4B2F806C00C2303EB810395880CEBD0
:1037F0000304AC4282BF40F2ED3030BC7047146825
:10380000A444C0F800C0D58814682C440834CCF80F
:10381000004000688171D0881844D08030BC0020FE
:1038200070470268002A14BF00297047CB8892793C
:103830006FF0030C52420CEB82021A44083ACA8021
:1038400000210160704700002DE9F04754480068EE
:10385000007800F07F08B8F1000F0AD150480068E6
:10386000407A00F0DF004E49096848720020BDE848
:10387000F087B8F1020F7CD149480068408818B938
:1038800047480068007908B10220F0E7DFF814919A
:1038900043480068477927F080052C464048006877
:1038A000407900F0800038B13F4901EB8400D0F846
:1038B000000C00F0300606E03B4901EB8400D0F834
:1038C000000C00F4405699F80000A84204D91EB13B
:1038D00033480068807A08B90220C8E707F0800002
:1038E00080B1314901EB8400D0F8000C00F03000C9
:1038F00010284BD1E0B2FDF717FBE0B23021FFF703
:1039000047FD43E0284901EB8400D0F8000C00F4A7
:103910004050B0F5805F39D1E4B9244A92F82C10B8
:10392000E0B2FFF7B7FC204A02EB8401D1F8001C9B
:103930004BF68F7201EA020080F4805080F4005050
:1039400040F4004141F08001174B03EB8402C2F8C0
:10395000001C1BE0E0B2FDF7CDFA134A02EB840134
:10396000D1F8001C4BF68F7201EA020080F48050FF
:1039700000E011E080F4005040F4004141F080018B
:10398000094B03EB8402C2F8001C00BF0849096818
:103990004869804700206AE700BF022067E700000F
:1039A0001C0000206E00002000500040700000202D
:1039B0002800002010B504462CB9012006490968EA
:1039C0000882002010BD0549096808688047024840
:1039D00000680A30F6E700001C00002028000020E4
:1039E00010B5024606480068438A32B98888C01A72
:1039F000034C24682082002010BD08681844FBE7AF
:103A00001C00002010B504462CB9012006490968A5
:103A10000882002010BD054909688868804702486F
:103A200000680C30F6E700001C0000202800002091
:103A300010B504462CB902203949096808820020D3
:103A400010BD00203749088035480068007800F034
:103A50007F0018BB32490968487A00F0200131B173
:103A60003049097841F002012E4A117005E02D49D4
:103A7000097801F0FD012B4A117000F0400131B1CD
:103A80002849097841F00101264A117005E02549CD
:103A9000097801F0FE01234A11703AE020480068DD
:103AA000007800F07F00012801D11E48C8E71C48BB
:103AB0000068007800F07F00022828D1184A1268B8
:103AC000517901F00F0001F080027AB1164B03EB3F
:103AD0008002D2F8002C02F03002102A16D1114ACE
:103AE000127842F001020F4B1A700FE00E4B03EBFD
:103AF0008002D2F8002C02F44052B2F5805F05D16A
:103B0000084A127842F00102064B1A7001E00020C8
:103B100096E70649096808698047024890E700006F
:103B20001C0000201200002000500040280000204F
:103B300010B50E480068C0780D494978884213DCFA
:103B40000A480068807878B908480068808858B9C1
:103B500006480068C07805490968887205490968FF
:103B600048688047002010BD0220FCE71C000020B0
:103B70006E0000202800002010B507480068407A39
:103B800040F0200004490968487204490968C8697E
:103B90008047002010BD00001C00002028000020ED
:103BA0002DE9F0412E480068467926F080073C4612
:103BB0002B480068407900F0800038B1294901EBBA
:103BC0008400D0F8000C00F0300506E0254901EB38
:103BD0008400D0F8000C00F4405523480078A0423F
:103BE00008D91F480068408820B91DB11C480068EA
:103BF000807A10B90220BDE8F08106F08000A0B103
:103C0000184A02EB8401D1F8001C48F6BF7201EAA1
:103C1000020080F0100040F4004141F08001114B9F
:103C200003EB8402C2F8001C14E00E4A02EB84018C
:103C3000D1F8001C4BF68F7201EA020080F480502C
:103C400040F4004141F08001064B03EB8402C2F8CE
:103C5000001C00BF05490968886980470020CAE741
:103C60001C000020005000406E00002028000020B2
:103C700010B5174B1B68D978154B1B685879154B35
:103C80001B689A699047044611480068807AE8B139
:103C90003CB90F480068007918B90D480068807871
:103CA00008B1022010BD8CB90B490968C86880476B
:103CB00007480068407906490968C87204480068E6
:103CC000C0780349096808730020EBE70220E9E7A0
:103CD0001C000020200000202800002010B5044611
:103CE00007480480002003E00021064A1154401CCC
:103CF000B0F5805FF8D3B020FEF746FF10BD00009E
:103D00003C000020840200202DE9F84300240094A8
:103D10000E4607468079897991469846884288BF41
:103D200001461A466846FFF75BFD00281CBF40F2BB
:103D3000ED30BDE8F883012500983146858038468E
:103D4000FDF720F9C01C072838D2DFE800F0302842
:103D5000201C140C040031463846009AFCF758FE2B
:103D60000098C4712AE031463846009A00F036F8CF
:103D70000098C47122E039463046009A00F02EF8CF
:103D80000098C4711AE00098FFF72EFC16E039463F
:103D90003046009A00F022F80098C5710EE03146D6
:103DA0003846009A00F01AF80098C57106E03146CE
:103DB0003846009AFCF72CFE0098C5710021484651
:103DC000FEF79EF949460098FDF72CF90446414656
:103DD0006846FFF726FD2046BDE8F8832DE9F0038D
:103DE000002384888D881E46AC4288BF254692F801
:103DF00006C00CF1010CAC453EBF41F2B540BDE838
:103E0000F003704790F806C00027A4450CD300BF0C
:103E1000D0F800C04CF8247004F1010C1FFA8CF4A7
:103E200090F806C0A445F3D2B1F804C08C7964457B
:103E300009D30C6844F82C700CF1010C8C791FFA32
:103E40008CFC6445F5D28C884FF0000CB4F1FF3F38
:103E50001AD00468D1F8009054F82C8059F82C90AE
:103E6000B8EB090867EB070918EB030449EB0603F5
:103E7000166846F82C408C880CF1010CDE171FFAEE
:103E80008CFC641C6445E4D8AC450FD2016814680E
:103E900051F82C10C91844F82C1047EB06030CF10C
:103EA0000101DE171FFA81FCAC45EFD333B1580096
:103EB0006FF00303116803EB8C03C850ACF10100F1
:103EC000116880B251F8203023B900281CBF401E71
:103ED00080B2F7D1401C9080BDE8F003002070470D
:103EE00038B50021002200230093394B1B6898B29B
:103EF00000BF09E0374C04EB8103D3F8003C9BB2D0
:103F0000354C44F82130491C0829F3D340F4806033
:103F10002F4B186040F00100186020F0010018607D
:103F200000BF2B4B1B1D1B6803F48063002BF8D0D4
:103F30004FF6FF33264C241D2360002109E0264B59
:103F400053F821309BB2234D05EB8104C4F8003CAB
:103F5000491C0829F3D340F008001D4B18601B686A
:103F600098B240F004001A4B18601C4B1B68009379
:103F70001A4B1A6822F0030242F001021A60184B31
:103F80001B6843F00403164C2360114B1B1D1B6878
:103F900003F4805333B930BF23461B6823F0040376
:103FA000236014E04EF6FF73094C241D2360231F89
:103FB0001B6898B220F00800231F1860074C009B74
:103FC0002360074B1B6823F00403054C236038BDB6
:103FD000405C004000500040E8220020007000409B
:103FE00010ED00E07047000010B51348006840F085
:103FF00001001149086008464068104908400E4910
:104000004860084600680E4908400B4908600846A9
:10401000006820F4802008600846406820F4FE0014
:1040200048604FF41F008860FFF76AFA4FF00060A5
:104030000449086010BD0000001002400000FFF8B5
:10404000FFFFF6FE08ED00E010B54FF48020FDF70D
:10405000F9FB10BD10B5044624B102210448FDF758
:10406000A0FD03E002210248FDF79DFD10BD000008
:10407000000C014010B50848084908600220096892
:104080000872074807490860074808490860054959
:1040900009680868804710BD480200201C00002005
:1040A0007000002020000020A00000202800002038
:1040B00008B54FF4A060FEF7DBFB14208DF800007C
:1040C00002208DF8010000208DF8020001208DF8FB
:1040D00003006846FEF794FB2A208DF800000120BB
:1040E0008DF801006846FEF78BFB08BD10B5002473
:1040F0002E4800682E4908800846008800F40040D9
:104100002C490988084008B1FCF78EFD2848008832
:1041100000F4806027490988084030B14FF6FF302D
:10412000224908602449486880472148008800F4F3
:10413000805020490988084030B14EF6FF701B4975
:1041400008600020FEF7F0FE1948008800F40060C7
:10415000184909880840B0B11848007860B118487B
:104160000068052808D11748006840F0800015490C
:104170000860FFF7B5FE02E00220FEF7D5FE4FF221
:10418000FF700A4908600A48008800F40070094975
:104190000988084040B14FF6FF50044908600A48BA
:1041A0000078401C0849087010BD0000445C0040C5
:1041B0000401002026000020700000206000002084
:1041C0005C0000200C0C01400601002010B5FFF738
:1041D0008DFF10BD0020064908604FF41E400549C0
:1041E0000880084600880249091F086000207047BF
:1041F000445C0040260000202DE9F04104460E46B4
:10420000002504F07F00FDF7EFFC054604F07F0079
:10421000FDF7DAFC07462A4639463046FEF7F6FB3C
:104220002846BDE8F0812DE9F04104460E461546CA
:1042300004F07F00FDF7EAFC0746AAB23946304693
:1042400000F00AF8A9B204F07F00FFF793F800200D
:10425000BDE8F08100BFFEE7F0B5144604F1010CA3
:104260004FEA6C07DFF824C00CEB41033D460AE03F
:104270000678401C90F800C046EA0C2223F8022B76
:104280009B1C401C6D1E002DF2D1F0BD0060004053
:104290000AB118B911B141F2B84070472DE9F041A7
:1042A00084469079CE1CB0EB960F3CBF41F2B540EE
:1042B000BDE8F081002948D0C81701EB9070831049
:1042C0000020002B0CDD444201EB8404644415689B
:1042D00054F8044C24BA45F82040401C8342F2DCD8
:1042E00094790025844206DD146844F820509479BE
:1042F000401C8442F8DC11F0030F15D014689CF8C0
:10430000000001F0030144F82300012001290BDD26
:1043100014681CF80080401C54F82370814248EA5D
:10432000072744F82370F3DCB008908011686FF021
:10433000030C80B20CEB8003CB5823B901281CBFBF
:10434000401E9080F5D1D57102E01046FFF74CF980
:104350000020BDE8F081F0B5B1B006460F46144626
:1043600005A9384600F057F8002537E0002003E0A3
:10437000002101AA1154401C1028F9DB002006E09E
:10438000102101FB0501715C01AA1154401CB4EB22
:10439000051F01DD10230FE0E31704EB13731B115E
:1043A000A4EB03133BB12146CB1701EB13731B1195
:1043B000A1EB031300E010238342E1DC05A901A86F
:1043C00000F020F8002006E001A9095C102202FBA1
:1043D0000502B154401C1028F6DB6D1C2046E21784
:1043E00004EB12721211A4EB02120AB1012200E0D6
:1043F0000022C31700EB137302EB2312AA42B5DCB1
:1044000031B0F0BD70B504460D460A22294620465B
:1044100000F0CCF870BD70B505460C4622468021F0
:10442000284600F0E7F870BD70B505460E4600243A
:1044300005E0285D0E49085C2855601CC4B2102CAC
:10444000F7DB0121681C00F058F90221A81C00F0DC
:1044500054F90321E81C00F050F9002405E0285D20
:10446000315D48402855601CC4B2102CF7DB70BD8C
:104470003E4B00082DE9FF4105460F46002406E0AB
:10448000285D4949085C0DF80400601CC4B2102C7A
:10449000F6DB01210DF1010000F02FF902210DF1F1
:1044A000020000F02AF903210DF1030000F025F9C4
:1044B00000246AE01DF82400A100491C1DF8011029
:1044C0004840A100891C1DF801104840A100C91CEA
:1044D0001DF8011080EA01061DF82400A200521CFC
:1044E0001DF8022080EA02011B22022000F0F3FAEC
:1044F0001DF82410484080EA060105F82410A000A9
:10450000401C1DF80000A200921C1DF8022080EA49
:1045100002011B22022000F0DEFAA100491C1DF856
:10452000011048407040A100491C6854A000801C44
:104530001DF80000A200D21C1DF8022080EA020132
:104540001B22022000F0C7FAA100891C1DF80110EF
:1045500048407040A100891C6854A000C01C1DF890
:1045600000001DF8242080EA02011B22022000F036
:10457000B2FAA100C91C1DF80110484080EA0601EA
:10458000A000C01C2954601CC4B2042C92DB00247F
:1045900005E0285D395D48402855601CC4B2102CE8
:1045A000F7DBBDE8FF8100003E4B00082DE9F0413C
:1045B00006460D461746002405E0305D295D48405B
:1045C0003055601CC4B2102CF7DB012408E005EB69
:1045D00004113046FFF74EFF601CC4B2781EC7B20C
:1045E000012FF4DC05EB04113046FFF71DFFBDE899
:1045F000F08100002DE9FC5F81460E4617464FF022
:10460000000AC6F34715E81D8006000E0190B34668
:10461000F01706EB5070C21049463846FBF7F4FD20
:10462000A8462C4656E0601E57F8200000904445EE
:104630001FD0082D45D1E11704EB5171C910A4EB2F
:10464000C10104293DD19DF800002549085C8DF881
:1046500000009DF80100085C8DF801009DF8020043
:10466000085C8DF802009DF80300085C8DF80300DB
:1046700027E008EB050000F0FF08684600F034F87A
:104680009DF800001649085C8DF800009DF80100B7
:10469000085C8DF801009DF80200085C8DF80200AE
:1046A0009DF80300085C8DF803009DF800000D499B
:1046B00011F80A1048408DF800000AF1010000F0DE
:1046C000FF0A601B57F820000099484047F8240073
:1046D000601CC4B201988442A5DBBDE8FC9F0000C9
:1046E0003E4B0008344B0008017842780270827813
:1046F0004270C2788270C170704708B502788DF838
:10470000002002798DF80120027A8DF80220027BC8
:104710008DF8032001F003021DF8022002704A1CEC
:1047200002F003021DF8022002718A1C02F003024B
:104730001DF802200272CA1C02F003021DF80220BA
:10474000027308BD2DE9F04705460C469146204608
:10475000E11704EB91714FEAA10A2E4656F82A7030
:10476000B9F1000F01D0FCF759FA04E004CE10BAF9
:10477000FCF74CFA8046BAF10000AAF1010AF5D123
:1047800004F00300012804D0022808D0032813D124
:104790000BE0F9B208BAFCF739FA80460CE0B9B27E
:1047A00008BAFCF733FA804606E027F07F4108BAE2
:1047B000FCF72CFA804600BF00BF6FEA080000BA81
:1047C000BDE8F087202BC4BF41F2787070472DE917
:1047D000F043BDB09C46449F14460E460546B7F5CF
:1047E000803FC2BF41F279703DB0BDE8F083BCF1BB
:1047F000000F16DD202332AA61462046FCF778FC24
:1048000000281CBF3DB0BDE8F0831022694605F1C9
:104810001000FCF713F832AA69462846FCF724FD7D
:1048200008E00020329033903490359036903790E5
:10483000389039901022694605F11000FBF7FEFF11
:10484000F81707EB107020F00F001024A7EB0009F9
:104850000DF1B808102F23DBE868401CE8600AD18E
:10486000A868401CA86006D16868401C686002D136
:104870002868401C286010236A462EA92846FBF7AA
:104880005BFE002004EB800258F82010324409BA85
:10489000401C42F8101C0428F4DB1034BC42DBDD61
:1048A000B9F1000F69D0E868401CE8600AD1A86837
:1048B000401CA86006D16868401C686002D1286866
:1048C000401C286010236A462EA92846FBF734FEB8
:1048D0004FEAE971002009EB917108E058F82020B7
:1048E00013BA04EB80023244401C42F8103CB0EB97
:1048F000A10FF3DB19F0030F3FD021F00301A9EB67
:10490000010158F82020C1F10403DB00DA4004EB78
:10491000800303EB010CB44448F820208C1E0CF8F3
:10492000112C0129D8BF00220CDD01228A4309D0B5
:1049300058F820C01C444FEA1C2C344448F820C0CE
:1049400004F810CC891A891EB1F1FF3F15DD00BFB4
:1049500058F8202003EB010C120AB44448F8202038
:104960000CF8102C58F82020891E120A48F8202034
:104970000CF8112CB1F1FF3FEADC32AA6946284657
:10498000FCF772FC286AB0F1FF3F02BF41F273707E
:104990003DB0BDE8F083401C28623DB00020BDE87A
:1049A000F0832DE9FF4F87B00026DDE91558029608
:1049B0000798DDF850B0994692460F460496019646
:1049C0000396002818BFBAF1000F0BD0BBF1000FFF
:1049D00018BF002F06D0B9F1000FC8BF002D01DDB0
:1049E000A94502DD41F2EF346BE0E81C8008014686
:1049F0000590424604A8FEF7F3FE040061D142464A
:104A000002A80599FEF7ECFE040056D12946584647
:104A1000029AFFF73DFC2946049A0798FFF738FCF5
:104A200002990498FCF7AEFA0028A8BF41F2F234CC
:104A30003FDA09F103008108424603A8FEF7D0FEE1
:104A4000040036D149465046039AFFF721FC0298EC
:104A50004246817901A8FEF7C3FE040025D1CDF8B6
:104A60000080DDE90310DDE90132FDF7E3FB04001E
:104A700017D10198FCF721FB281A002807DD3E55C5
:104A8000641C0198FCF719FB281AA042F7DC019876
:104A9000FCF713FB281AC11900220198FCF77CF8D7
:104AA0000024414601A8FEF7BCFE414603A8FEF7DC
:104AB000B8FE414602A8FEF7B4FE414604A8FEF740
:104AC000B0FE0BB02046BDE8F08F002100E0491C8D
:104AD0008142FCD3704770B50346002000240CE0EF
:104AE00001F0010606B1584003F080055E06330E62
:104AF00005B153404910661CF4B2082CF0DB70BDC0
:104B0000FCF7E6FE01214020FDF7DAFFFEF7CAFDC3
:104B1000FFF7CEFAFEF7FEFDFFF7ACFA002003E048
:104B20000021034A1154401CFF28F9D900BFFEE7B9
:104B30004801002001020408102040801B36637CDD
:104B4000777BF26B6FC53001672BFED7AB76CA82DD
:104B5000C97DFA5947F0ADD4A2AF9CA472C0B7FD8D
:104B60009326363FF7CC34A5E5F171D8311504C74B
:104B700023C31896059A071280E2EB27B2750983C2
:104B80002C1A1B6E5AA0523BD6B329E32F8453D163
:104B900000ED20FCB15B6ACBBE394A4C58CFD0EF58
:104BA000AAFB434D338545F9027F503C9FA851A392
:104BB000408F929D38F5BCB6DA2110FFF3D2CD0CB0
:104BC00013EC5F974417C4A77E3D645D1973608141
:104BD0004FDC222A908846EEB814DE5E0BDBE03212
:104BE0003A0A4906245CC2D3AC629195E479E7C8DD
:104BF000376D8DD54EA96C56F4EA657AAE08BA7851
:104C0000252E1CA6B4C6E8DD741F4BBD8B8A703EF2
:104C1000B5664803F60E613557B986C11D9EE1F8A9
:104C2000981169D98E949B1E87E9CE5528DF8CA1F7
:104C3000890DBFE6426841992D0FB054BB16120191
:104C40000002000000408304115707030102030122
:104C500009022900010100E03209040000020300FA
:104C60000000092101010001229400070581034091
:104C70000020070501034000200600FF0901A101F3
:104C800085B009B01500250175089506B18285B07B
:104C900009B0918285B009B075089504818285B10B
:104CA00009B1150025017508953FB18285B109B19B
:104CB000918285B109B175089504818285B209B2E6
:104CC0001500250175089504B18285B209B291825B
:104CD00085B209B275089506818285B309B31500BE
:104CE000250175089505B18285B309B3918285B315
:104CF00009B37508953F818285FF09FF7508950402
:104D0000818285F009F0750895048182C004030949
:104D1000042A0347006F0073006B0061007A006E85
:104D2000006100630068006500790073007400761C
:104D3000006F0020004C004E005200180347007224
:104D40000061006E00690074004B0020004B00659C
:104D5000007900000000000009000000637C777B00
:104D6000F26B6FC53001672BFED7AB76CA82C97D67
:104D7000FA5947F0ADD4A2AF9CA472C0B7FD9326F8
:104D8000363FF7CC34A5E5F171D8311504C723C3FC
:104D90001896059A071280E2EB27B27509832C1A40
:104DA0001B6E5AA0523BD6B329E32F8453D100ED9A
:104DB00020FCB15B6ACBBE394A4C58CFD0EFAAFB7E
:104DC000434D338545F9027F503C9FA851A3408F46
:104DD000929D38F5BCB6DA2110FFF3D2CD0C13EC5E
:104DE0005F974417C4A77E3D645D197360814FDCF3
:104DF000222A908846EEB814DE5E0BDBE0323A0AD7
:104E00004906245CC2D3AC629195E479E7C8376D5A
:104E10008DD54EA96C56F4EA657AAE08BA78252E7F
:104E20001CA6B4C6E8DD741F4BBD8B8A703EB56608
:104E30004803F60E613557B986C11D9EE1F89811F9
:104E400069D98E949B1E87E9CE5528DF8CA1890DE8
:104E5000BFE6426841992D0FB054BB1652096AD57E
:104E60003036A538BF40A39E81F3D7FB7CE339825F
:104E70009B2FFF87348E4344C4DEE9CB547B9432AE
:104E8000A6C2233DEE4C950B42FAC34E082EA166F6
:104E900028D924B2765BA2496D8BD12572F8F664CD
:104EA00086689816D4A45CCC5D65B6926C70485048
:104EB000FDEDB9DA5E154657A78D9D8490D8AB00FD
:104EC0008CBCD30AF7E45805B8B34506D02C1E8F26
:104ED000CA3F0F02C1AFBD0301138A6B3A91114162
:104EE0004F67DCEA97F2CFCEF0B4E67396AC74224B
:104EF000E7AD3585E2F937E81C75DF6E47F11A71C9
:104F00001D29C5896FB7620EAA18BE1BFC563E4B01
:104F1000C6D279209ADBC0FE78CD5AF41FDDA833C3
:104F20008807C731B11210592780EC5F60517FA903
:104F300019B54A0D2DE57A9F93C99CEFA0E03B4D32
:104F4000AE2AF5B0C8EBBB3C83539961172B047EA6
:104F5000BA77D626E169146355210C7D0000000163
:104F60000000000200000004000000080000001023
:104F70000000002000000040000000800000001B36
:104F800000000036A56363C6847C7CF8997777EED1
:104F90008D7B7BF60DF2F2FFBD6B6BD6B16F6FDED2
:104FA00054C5C5915030306003010102A96767CE36
:104FB0007D2B2B5619FEFEE762D7D7B5E6ABAB4D7E
:104FC0009A7676EC45CACA8F9D82821F40C9C989EC
:104FD000877D7DFA15FAFAEFEB5959B2C947478E2A
:104FE0000BF0F0FBECADAD4167D4D4B3FDA2A25FF2
:104FF000EAAFAF45BF9C9C23F7A4A453967272E41A
:105000005BC0C09BC2B7B7751CFDFDE1AE93933D7D
:105010006A26264C5A36366C413F3F7E02F7F7F53A
:105020004FCCCC835C343468F4A5A55134E5E5D18C
:1050300008F1F1F9937171E273D8D8AB5331316251
:105040003F15152A0C04040852C7C795652323464B
:105050005EC3C39D28181830A19696370F05050A20
:10506000B59A9A2F0907070E361212249B80801BCF
:105070003DE2E2DF26EBEBCD6927274ECDB2B27FD2
:105080009F7575EA1B0909129E83831D742C2C5889
:105090002E1A1A342D1B1B36B26E6EDCEE5A5AB421
:1050A000FBA0A05BF65252A44D3B3B7661D6D6B72F
:1050B000CEB3B37D7B2929523EE3E3DD712F2F5E12
:1050C00097848413F55353A668D1D1B9000000002A
:1050D0002CEDEDC1602020401FFCFCE3C8B1B1798C
:1050E000ED5B5BB6BE6A6AD446CBCB8DD9BEBE67DC
:1050F0004B393972DE4A4A94D44C4C98E85858B02F
:105100004ACFCF856BD0D0BB2AEFEFC5E5AAAA4F17
:1051100016FBFBEDC5434386D74D4D9A5533336699
:1051200094858511CF45458A10F9F9E906020204F4
:10513000817F7FFEF05050A0443C3C78BA9F9F2571
:10514000E3A8A84BF35151A2FEA3A35DC040408049
:105150008A8F8F05AD92923FBC9D9D214838387053
:1051600004F5F5F1DFBCBC63C1B6B67775DADAAF2A
:1051700063212142301010201AFFFFE50EF3F3FDEA
:105180006DD2D2BF4CCDCD81140C0C183513132623
:105190002FECECC3E15F5FBEA2979735CC44448807
:1051A0003917172E57C4C493F2A7A755827E7EFCE9
:1051B000473D3D7AAC6464C8E75D5DBA2B1919328E
:1051C000957373E6A06060C098818119D14F4F9E9E
:1051D0007FDCDCA3662222447E2A2A54AB90903BDB
:1051E0008388880BCA46468C29EEEEC7D3B8B86BC5
:1051F0003C14142879DEDEA7E25E5EBC1D0B0B16A4
:1052000076DBDBAD3BE0E0DB563232644E3A3A749B
:105210001E0A0A14DB4949920A06060C6C2424482B
:10522000E45C5CB85DC2C29F6ED3D3BDEFACAC434F
:10523000A66262C4A8919139A495953137E4E4D36C
:105240008B7979F232E7E7D543C8C88B5937376E87
:10525000B76D6DDA8C8D8D0164D5D5B1D24E4E9C73
:10526000E0A9A949B46C6CD8FA5656AC07F4F4F32B
:1052700025EAEACFAF6565CA8E7A7AF4E9AEAE4721
:1052800018080810D5BABA6F887878F06F25254AC3
:10529000722E2E5C241C1C38F1A6A657C7B4B4731A
:1052A00051C6C69723E8E8CB7CDDDDA19C7474E889
:1052B000211F1F3EDD4B4B96DCBDBD61868B8B0DE8
:1052C000858A8A0F907070E0423E3E7CC4B5B5710D
:1052D000AA6666CCD84848900503030601F6F6F79F
:1052E000120E0E1CA36161C25F35356AF95757AEC5
:1052F000D0B9B9699186861758C1C199271D1D3A41
:10530000B99E9E2738E1E1D913F8F8EBB398982BB2
:1053100033111122BB6969D270D9D9A9898E8E0740
:10532000A7949433B69B9B2D221E1E3C9287871513
:1053300020E9E9C949CECE87FF5555AA78282850DB
:105340007ADFDFA58F8C8C03F8A1A15980898909A8
:10535000170D0D1ADABFBF6531E6E6D7C6424284A3
:10536000B86868D0C3414182B0999929772D2D5AE8
:10537000110F0F1ECBB0B07BFC5454A8D6BBBB6D35
:105380003A16162C50A7F4515365417EC3A4171A40
:10539000965E273ACB6BAB3BF1459D1FAB58FAAC01
:1053A0009303E34B55FA3020F66D76AD9176CC88B9
:1053B000254C02F5FCD7E54FD7CB2AC580443526CE
:1053C0008FA362B5495AB1DE671BBA25980EEA452C
:1053D000E1C0FE5D02752FC312F04C81A397468D8C
:1053E000C6F9D36BE75F8F03959C9215EB7A6DBF7F
:1053F000DA5952952D83BED4D32174582969E049D6
:1054000044C8C98E6A89C27578798EF46B3E589902
:10541000DD71B927B64FE1BE17AD88F066AC20C983
:10542000B43ACE7D184ADF6382311AE56033519772
:10543000457F5362E07764B184AE6BBB1CA081FEF4
:10544000942B08F95868487019FD458F876CDE94D5
:10545000B7F87B5223D373ABE2024B72578F1FE333
:105460002AAB55660728EBB203C2B52F9A7BC586D7
:10547000A50837D3F2872830B2A5BF23BA6A030242
:105480005C8216ED2B1CCF8A92B479A7F0F207F359
:10549000A1E2694ECDF4DA65D5BE05061F6234D1AE
:1054A0008AFEA6C49D532E34A055F3A232E18A058C
:1054B00075EBF6A439EC830BAAEF6040069F715E92
:1054C00051106EBDF98A213E3D06DD96AE053EDDEA
:1054D00046BDE64DB58D5491055DC4716FD406048B
:1054E000FF15506024FB981997E9BDD6CC4340893D
:1054F000779ED967BD42E8B0888B8907385B19E78A
:10550000DBEEC879470A7CA1E90F427CC91E84F80A
:10551000000000008386800948ED2B32AC70111E1C
:105520004E725A6CFBFF0EFD5638850F1ED5AE3DF0
:1055300027392D3664D90F0A21A65C68D1545B9BAC
:105540003A2E3624B1670A0C0FE75793D296EEB481
:105550009E919B1B4FC5C080A220DC61694B775A8E
:10556000161A121C0ABA93E2E52AA0C043E0223CB4
:105570001D171B120B0D090EADC78BF2B9A8B62D66
:10558000C8A91E148519F1574C0775AFBBDD99EEFC
:10559000FD607FA39F2601F7BCF5725CC53B6644A6
:1055A000347EFB5B7629438BDCC623CB68FCEDB6EF
:1055B00063F1E4B8CADC31D7108563424022971307
:1055C0002011C6847D244A85F83DBBD21132F9AE44
:1055D0006DA129C74B2F9E1DF330B2DCEC52860D16
:1055E000D0E3C1776C16B32B99B970A9FA4894111E
:1055F0002264E947C48CFCA81A3FF0A0D82C7D5641
:10560000EF903322C74E4987C1D138D9FEA2CA8C48
:10561000360BD498CF81F5A628DE7AA5268EB7DA88
:10562000A4BFAD3FE49D3A2C0D9278509BCC5F6AAD
:1056300062467E54C2138DF6E8B8D8905EF7392ED4
:10564000F5AFC382BE805D9F7C93D069A92DD56FD5
:10565000B31225CF3B99ACC8A77D18106E639CE8A8
:105660007BBB3BDB097826CDF418596E01B79AEC69
:10567000A89A4F83656E95E67EE6FFAA08CFBC2107
:10568000E6E815EFD99BE7BACE366F4AD4099FEA10
:10569000D67CB029AFB2A43131233F2A3094A5C6BD
:1056A000C066A23537BC4E74A6CA82FCB0D090E06A
:1056B00015D8A7334A9804F1F7DAEC410E50CD7FA4
:1056C0002FF691178DD64D764DB0EF43544DAACCA1
:1056D000DF0496E4E3B5D19E1B886A4CB81F2CC149
:1056E0007F51654604EA5E9D5D358C01737487FACF
:1056F0002E410BFB5A1D67B352D2DB92335610E991
:105700001347D66D8C61D79A7A0CA1378E14F8594D
:10571000893C13EBEE27A9CE35C961B7EDE51CE155
:105720003CB1477A59DFD29C3F73F25579CE1418B9
:10573000BF37C773EACDF7535BAAFD5F146F3DDF38
:1057400086DB447881F3AFCA3EC468B92C34243870
:105750005F40A3C272C31D160C25E2BC8B493C28D6
:1057600041950DFF7101A839DEB30C089CE4B4D853
:1057700090C156646184CB7B70B632D5745C6C4842
:105780004257B8D00000C201840346020807CA0687
:105790008C044E05100ED20F940D560C1809DA0821
:1057A0009C0A5E0B201CE21DA41F661E281BEA1A21
:1057B000AC186E193012F213B41176103815FA14B1
:1057C000BC167E1740388239C43B063A483F8A3EB1
:1057D000CC3C0E3D50369237D435163458319A3081
:1057E000DC321E336024A225E42726266823AA2261
:1057F000EC202E21702AB22BF4293628782DBA2CD1
:10580000FC2E3E2F807042710473C67288774A76F0
:105810000C74CE75907E527F147DD67C98795A7820
:105820001C7ADE7BA06C626D246FE66EA86B6A6AE0
:105830002C68EE69B06272633461F660B8657A64B0
:105840003C66FE67C0480249444B864AC84F0A4E30
:105850004C4C8E4DD046124754459644D8411A4080
:105860005C429E43E05422556457A656E8532A52A0
:105870006C50AE51F05A325B7459B658F85D3A5CD0
:105880007C5EBE5F00E1C2E084E246E308E6CAE770
:105890008CE54EE410EFD2EE94EC56ED18E8DAE920
:1058A0009CEB5EEA20FDE2FCA4FE66FF28FAEAFB20
:1058B000ACF96EF830F3F2F2B4F076F138F4FAF5B0
:1058C000BCF77EF640D982D8C4DA06DB48DE8ADF30
:1058D000CCDD0EDC50D792D6D4D416D558D09AD180
:1058E000DCD31ED260C5A2C4E4C626C768C2AAC360
:1058F000ECC12EC070CBB2CAF4C836C978CCBACDD0
:10590000FCCF3ECE809142900492C69388964A97EF
:105910000C95CE94909F529E149CD69D98985A991F
:105920001C9BDE9AA08D628C248EE68FA88A6A8BDF
:105930002C89EE88B08372823480F681B8847A85AF
:105940003C87FE86C0A902A844AA86ABC8AE0AAFAF
:105950004CAD8EACD0A712A654A496A5D8A01AA17F
:105960005CA39EA2E0B522B464B6A6B7E8B22AB39F
:105970006CB1AEB0F0BB32BA74B8B6B9F8BC3ABDCF
:105980007CBFBEBE0000201C403860248070A06C2C
:10599000C048E05400E120FD40D960C58091A08D51
:1059A000C0A9E0B5000401010000000000000100F2
:1059B00004040101040001010404010004000000CA
:1059C00000000100000400000004010104040101C2
:1059D00000040000040400010400010100000001B3
:1059E00004000000040400000004000100040001A1
:1059F0000004010000040100000001010000010199
:105A0000040400010400010004000001040000017E
:105A10000400010000000000040400000404010070
:105A20000000000100000100040401010400000066
:105A3000000001010004010100000001000000015C
:105A40000004000004000101000001000004010046
:105A50000400000100040000040000000404000130
:105A6000040401000404010104000100000001011C
:105A70000404000104000001040400000404010007
:105A800000040101040400000004000100040001FE
:105A900000000000040001000004010000000000FC
:105AA0000400010120801080008000800080000040
:105AB0002080100000001000200000002000108056
:105AC00020800080200000802080108000801080D6
:105AD0000000008000800080000010002000000016
